:100000000C943F010C9467010C9467010C946701F8
:100010000C9467010C9467010C9467010C946701C0
:100020000C9467010C9467010C9467010C945009BF
:100030000C9467010C9467010C9467010C946701A0
:100040000C94AE080C9467010C941E090C94F808EB
:100050000C9467010C9467010C9467010C94670180
:100060000C940C0A0C946701000000002400270087
:100070002A005B4248313735305D204552524F529D
:100080003A20756E646566696E6564206572726F8C
:1000900072005B4248313735305D204552524F5235
:1000A0003A206F74686572206572726F72005B42ED
:1000B00048313735305D204552524F523A207265F3
:1000C000636569766564204E41434B206F6E2074F2
:1000D00072616E736D6974206F6620646174610073
:1000E0005B4248313735305D204552524F523A20FD
:1000F0007265636569766564204E41434B206F6E7F
:10010000207472616E736D6974206F66206164641F
:1001100072657373005B4248313735305D2045525C
:10012000524F523A20746F6F206C6F6E6720666F6B
:1001300072207472616E736D697420627566666593
:1001400072005B4248313735305D204552524F5284
:100150003A20756E646566696E6564206572726FBB
:1001600072005B4248313735305D204552524F5264
:100170003A206F74686572206572726F72005B421C
:1001800048313735305D204552524F523A20726522
:10019000636569766564204E41434B206F6E207421
:1001A00072616E736D6974206F66206461746100A2
:1001B0005B4248313735305D204552524F523A202C
:1001C0007265636569766564204E41434B206F6EAE
:1001D000207472616E736D6974206F66206164644F
:1001E00072657373005B4248313735305D2045528C
:1001F000524F523A20746F6F206C6F6E6720666F9B
:1002000072207472616E736D6974206275666665C2
:1002100072005B4248313735305D20446576696352
:1002200065206973206E6F7420636F6E66696775F1
:10023000726564210000000000250028002B0004E6
:10024000040404040404040202020202020303037D
:100250000303030102040810204080010204081077
:100260002001020408102000000008000201000024
:100270000304070000000000000000002B0B112405
:100280001FBECFEFD8E0DEBFCDBF11E0A0E0B1E0F0
:10029000EEEFF0E202C005900D92A638B107D9F753
:1002A00023E0A6E8B1E001C01D92A734B207E1F750
:1002B00011E0CFE3D1E004C02197FE010E946E104F
:1002C000CE33D107C9F70E94B60B0C947D100C9465
:1002D0000000E0913603EC3088F54091370328E8C0
:1002E00030E0241B310947FD3395220F331F220FC5
:1002F000331F8217930784F04091380328E532E0DA
:10030000241B310947FD3395220F331F220F331F62
:10031000821793070CF49C0122503109220F331FDE
:100320004FB7F8948E2F90E0FC01EE0FFF1FE80FFF
:10033000F91FEB5FFC4F328321834FBF089590E09C
:10034000FC01E959FD4F2491FC01ED5AFD4F349118
:10035000FC01E15CFD4FE491EE23C9F0222339F06A
:10036000233001F1A8F4213019F1223029F1F0E015
:10037000EE0FFF1FEB5CFD4FA591B4918FB7F89482
:10038000EC91611126C030953E233C938FBF0895B8
:100390002730A9F02830C9F0243049F78091800037
:1003A0008F7D03C0809180008F7780938000DFCFA6
:1003B00084B58F7784BDDBCF84B58F7DFBCF8091F3
:1003C000B0008F778093B000D2CF8091B0008F7D46
:1003D000F9CF3E2BDACF3FB7F89480911602909177
:1003E0001702A0911802B091190226B5A89B05C06A
:1003F0002F3F19F00196A11DB11D3FBFBA2FA92FA4
:10040000982F8827BC01CD01620F711D811D911DA0
:1004100042E0660F771F881F991F4A95D1F708950C
:100420008F929F92AF92BF92CF92DF92EF92FF9204
:100430004B015C010E94EB016B017C010E94EB010E
:100440006C197D098E099F09683E734081059105ED
:10045000A8F321E0821A9108A108B10888EEC80E1D
:1004600083E0D81EE11CF11C81149104A104B104A5
:1004700029F7FF90EF90DF90CF90BF90AF909F90C3
:100480008F9008952FB7F894609112027091130223
:1004900080911402909115022FBF08950895089538
:1004A000AF92BF92CF92DF92EF92FF920F931F9382
:1004B000CF93DF936C017B018B01040F151FEB01C0
:1004C0005E01AE18BF08C017D10759F06991D60177
:1004D000ED91FC910190F081E02DC6010995892BE9
:1004E00079F7C501DF91CF911F910F91FF90EF90A8
:1004F000DF90CF90BF90AF900895FC01538D448D55
:10050000252F30E0842F90E0821B930B541710F0BE
:10051000CF96089501970895FC01918D828D9817CB
:1005200061F0A28DAE0FBF2FB11D5D968C91928DA3
:100530009F5F9F73928F90E008958FEF9FEF0895D4
:10054000FC01918D828D981731F0828DE80FF11D9D
:10055000858D90E008958FEF9FEF0895FC01918DB8
:10056000228D892F90E0805C9F4F821B91098F73B1
:100570009927089588E692E00E94AE0221E0892B37
:1005800009F420E0822F089580E090E0892B29F083
:100590000E94BA0281110C9400000895FC01A48D00
:1005A000A80FB92FB11DA35ABF4F2C91848D90E095
:1005B00001968F739927848FA689B7892C93A08978
:1005C000B1898C91837080648C93938D848D981302
:1005D00006C00288F389E02D80818F7D8083089595
:1005E000EF92FF920F931F93CF93DF93EC0181E083
:1005F000888F9B8D8C8D98131AC0E889F98980812A
:1006000085FF15C09FB7F894EE89FF896083E8895C
:10061000F98980818370806480839FBF81E090E04E
:10062000DF91CF911F910F91FF90EF900895F62EDB
:100630000B8D10E00F5F1F4F0F731127E02E8C8D75
:100640008E110CC00FB607FCFACFE889F9898081BA
:1006500085FFF5CFCE010E94CE02F1CFEB8DEC0FDE
:10066000FD2FF11DE35AFF4FF0829FB7F8940B8FD7
:10067000EA89FB8980818062CFCFCF93DF93EC0141
:10068000888D8823B9F0AA89BB89E889F9898C917A
:1006900085FD03C0808186FD0DC00FB607FCF7CF36
:1006A0008C9185FFF2CF808185FFEDCFCE010E9436
:1006B000CE02E9CFDF91CF9108952091D801260F86
:1006C0003327331F21323105ECF420914002FC0125
:1006D00090E080E0243069F082E00895A091D80194
:1006E0002191AC0148545E4FA40FB52FB11D2C933E
:1006F0000196861798F38091D801680F6093D8010E
:1007000080E0089581E008951092400281E0809396
:100710003F0210923A0261E082E10E949F0161E093
:1007200083E10E949F01E9EBF0E080818E7F80836E
:1007300080818D7F808388E48093B80085E48093F6
:10074000BC000895CF93DF9391E09093B701882385
:10075000B9F0C091B800D091BA008091BC008A7BFA
:100760008093BC0060E082E10E949F0160E083E131
:100770000E949F010E948403D093BA00C093B800E6
:10078000DF91CF9108950895E0914702809146024C
:10079000E81730F4F0E0E85BFD4F808190E00895C9
:1007A0008FEF9FEF089590914702809146022FEFBF
:1007B0003FEF981748F4E92FF0E0E85BFD4F208108
:1007C00030E09F5F90934702C901089580914602EF
:1007D00090914702891B990B0895CF92DF92EF9277
:1007E000FF920F931F93CF93DF937C01CB018A017C
:1007F00020910302222389F0EB016B01C40ED51E68
:10080000CC15DD0569F06991D701ED91FC9101905E
:10081000F081E02DC7010995F3CF642F0E945D039D
:10082000C801DF91CF911F910F91FF90EF90DF9062
:10083000CF900895CF93DF931F92CDB7DEB7698332
:10084000209103022223F9F020910002203258F077
:1008500021E030E0FC013383228390E080E00F90C0
:10086000DF91CF91089580910102E82FF0E0E956E1
:10087000FE4F998190838F5F8093010280930002E5
:1008800081E090E0ECCF61E0CE0101960E945D0333
:10089000F7CFCF92DF92EF92FF920F931F93CF93F8
:1008A000DF93D091000281E0D13208F09CC0C0916A
:1008B00002020E94EB016B017C01809140028111D8
:1008C0006CC082E08093400281E080933F028FEF12
:1008D00080933E0210923D02D0933C02A7E9B1E022
:1008E000EAE1F2E080E0D8138DC010923B028091E3
:1008F0003B02CC0FC82BC0933B0280913A0281305F
:1009000009F084C010923A020E94EB016B017C0155
:1009100080913B028093BB00809142029091430200
:10092000A0914402B0914502892B8A2B8B2BA1F018
:100930000E94EB0100914202109143022091440277
:10094000309145026C197D098E099F09061717071A
:100950002807390708F442C08091BC0083FDD8CF36
:1009600085EC8093BC000E94EB016B017C018091BF
:100970004002823009F44CC080913E028F3F09F45E
:1009800069C080913E02803209F466C080913E02C7
:10099000803309F463C084E026C0809142029091C4
:1009A0004302A0914402B0914502892B8A2B8B2BE4
:1009B00009F483CF0E94EB0100914202109143029F
:1009C00020914402309145026C197D098E099F09DE
:1009D000061717072807390708F06FCF80914102E3
:1009E0000E94A20385E01092010210920002109270
:1009F0000302DF91CF911F910F91FF90EF90DF9055
:100A0000CF9008959D9191938F5F6DCF85EEA9CF83
:100A10008091420290914302A0914402B09145021C
:100A2000892B8A2B8B2B09F4A2CF0E94EB0100911A
:100A300042021091430220914402309145026C1908
:100A40007D098E099F09061717072807390708F03F
:100A50008ECFC4CF80E0C7CF82E0C5CF83E0C3CFC5
:100A600090E080E00895DC01ED91FC910190F0812F
:100A7000E02D099480ED97E00E9469016EE170E03D
:100A800080E090E00E94100288EE93E00C946901EF
:100A9000FC0101900020E9F73197AF01481B590B89
:100AA000BC0188E692E00C9450020F931F93CF9301
:100AB000DF938C01D0E0C0E0F801EC0FFD1F6491E2
:100AC000662341F088E692E00E94F002892B11F043
:100AD0002196F2CF84E291E00E9448058C0F9D1F81
:100AE000DF91CF911F910F9108958F929F92AF92B6
:100AF000BF920F931F93CF93DF93CDB7DEB7A1972C
:100B00000FB6F894DEBF0FBECDBF19A2423008F475
:100B10004AE08E010F5D1F4F842E912CB12CA12C29
:100B2000A50194010E94040EE62FB901CA01EA3022
:100B3000F4F4E05DD801EE938D01232B242B252BBB
:100B400079F790E080E0109719F0CD010E944805F8
:100B5000A1960FB6F894DEBF0FBECDBFDF91CF9147
:100B60001F910F91BF90AF909F908F900895E95C77
:100B7000E1CFCF93DF930E944805EC0184E291E03E
:100B80000E9448058C0F9D1FDF91CF9108958F9291
:100B90009F92AF92BF92CF92DF92EF92FF920F930C
:100BA0001F93F09039030E94EB014B015C0180918F
:100BB0004002811165C081E08093400280933F0232
:100BC0009FEF90933E0210923D0280933C028093EF
:100BD0003B0280913B02FF0CF82AF0923B0280918D
:100BE0003A02813009F0F5C010923A020E94EB01FE
:100BF0006B017C0180913B028093BB00809142029B
:100C000090914302A0914402B0914502892B8A2B16
:100C10008B2BA1F00E94EB01009142021091430244
:100C200020914402309145026C197D098E099F097B
:100C3000061717072807390708F443C08091BC003E
:100C400083FDD8CF85EC8093BC000E94EB016B0143
:100C50007C0180914002813009F4BDC080913D0249
:100C6000823008F0DAC080913D02AAE1B2E0E8E407
:100C7000F2E090E0981751F12D9121939F5FFACF08
:100C80008091420290914302A0914402B0914502AA
:100C9000892B8A2B8B2B09F48ACF0E94EB010091C0
:100CA000420210914302209144023091450268199A
:100CB00079098A099B09061717072807390708F0D9
:100CC00076CF809141020E94A20380E010924702F9
:100CD00080934602823009F0A2C080914103909136
:100CE0004203DC01ED91FC910284F385E02D09952E
:100CF000E12CF82E8091410390914203DC01ED91AB
:100D0000FC910284F385E02D09958E299F29BC0171
:100D100090E080E00E94390F6B017C010E9442024A
:100D20006093430370934403809345039093460379
:100D300020E030E040E85FEBC701B6010E94930E6F
:100D40008823D1F160913A036534A9F070E090E016
:100D500080E00E94390F9B01AC0160E070E08AE8FE
:100D600092E40E94980E9B01AC01C701B6010E945B
:100D7000F00F6B017C0180913F0390914003813221
:100D8000910511F0419751F420E030E040E05FE33D
:100D9000C701B6010E94F00F6B017C0120913B035B
:100DA00030913C0340913D0350913E03C701B60191
:100DB0000E94980E6B017C01C701B6011F910F9133
:100DC000FF90EF90DF90CF90BF90AF909F908F906B
:100DD000089585EE38CF8091420290914302A09110
:100DE0004402B0914502892B8A2B8B2B09F431CF19
:100DF0000E94EB01009142021091430220914402B3
:100E0000309145026C197D098E099F090617170755
:100E10002807390708F01DCF54CF82E026CFC12C18
:100E2000D12C80E8E82E8FEBF82E78CF85ED8093DB
:100E3000BC008091420290914302A0914402B09183
:100E400045020796A11DB11D23E0B695A79597957C
:100E500087952A95D1F72091BC0024FD03C01092FC
:100E60004002089540914202509143026091440231
:100E700070914502452B462B472B69F30097A1053E
:100E8000B10541F02AE22A95F1F700C00197A109C6
:100E9000B109E1CF809141020C94A2038F929F92FD
:100EA000AF92BF92CF92DF92EF92FF92CF93C1E0C9
:100EB00088E692E00E94AE02181619060CF044C1B2
:100EC00088E692E00E948C02E09196018A3019F047
:100ED0008D3009F02DC1EE2359F3F0E0EA57FE4FB3
:100EE00010826EE271E086E891E00E947410892B16
:100EF00079F40E943A05C09308020E94420260936E
:100F0000040270930502809306029093070216C0B4
:100F10006BE371E086E891E00E947410892B41F048
:100F200060E471E086E891E00E947410892B69F416
:100F30000E943A05809108028111DFCF82E391E09F
:100F40000E94B90510929601B3CF68E471E086E87B
:100F500091E00E947410892B49F41092080288EEE7
:100F600093E00E94690185E491E0EACF6DE471E0CD
:100F700086E891E00E947410892B09F0D2C080911C
:100F80003F0390914003892BA1F582E192E00E94FA
:100F9000550560E070E080E090EC60930D02709386
:100FA0000E0280930F029093100284E591E00E945C
:100FB0004805C0900D02D0900E02E0900F02F09014
:100FC0001002A7019601C701B6010E945D10882397
:100FD00099F08CE591E00E94480588E691E00E9436
:100FE000480580910802882309F498C087E291E0BF
:100FF000A7CF0E94C705D1CF46015701E894B7F8A3
:101000002FEF3FEF4FE75FE7C501B4010E945D108E
:1010100081110DC02FEF3FEF4FE75FE7C501B4012E
:101020000E94930E18161CF480E691E0D4CF2FEFA7
:101030003FEF4FE75FE4C701B6010E94EB0F1816C0
:101040001CF484E691E0C7CF2FEF3FEF4FE75FEC52
:10105000C701B6010E94930E87FDF3CF20E030E078
:10106000A901C701B6010E94930E87FF09C06DE276
:1010700088E692E00E94F002F7FAF094F7F8F09414
:101080002AE037ED43EA5BE3C701B6010E94270E71
:101090004B015C010E940A0F6B017C010E94390F19
:1010A0009B01AC01C501B4010E94260E4B015C01FD
:1010B0004AE0C701B6010E9475056EE288E692E03B
:1010C0000E94F00220E030E040E251E4C501B401AA
:1010D0000E94F00F4B015C010E940A0F6B01F12C82
:1010E000E12C4AE0C701B6010E947505C701B601AF
:1010F0000E94390F9B01AC01C501B4010E94260E6C
:1011000020E030E040E251E40E94F00F0E940A0F1C
:1011100090E080E04AE00E9475055FCF8AE291E0AE
:101120000FCF8FE691E00E94480586E891E008CF56
:10113000EF3008F0BDCE91E09E0F90939601F0E065
:10114000EA57FE4F8083B4CECF91FF90EF90DF90AF
:10115000CF90BF90AF909F908F9008951F920F9265
:101160000FB60F9211242F933F938F939F93AF93BA
:10117000BF938091120290911302A0911402B0913A
:1011800015023091110223E0230F2D3758F50196F7
:10119000A11DB11D2093110280931202909313029E
:1011A000A0931402B0931502809116029091170239
:1011B000A0911802B09119020196A11DB11D809352
:1011C000160290931702A0931802B0931902BF91D0
:1011D000AF919F918F913F912F910F900FBE0F90E4
:1011E0001F90189526E8230F0296A11DB11DD2CF9E
:1011F0001F920F920FB60F9211242F933F934F938C
:101200005F936F937F938F939F93AF93BF93EF936E
:10121000FF9388E692E00E94CE02FF91EF91BF918A
:10122000AF919F918F917F916F915F914F913F917E
:101230002F910F900FBE0F901F9018951F920F9235
:101240000FB60F9211242F938F939F93EF93FF93D9
:10125000E0917802F09179028081E0917E02F09134
:101260007F0282FD1BC09081809181028F5F8F730E
:1012700020918202821741F0E0918102F0E0E8596A
:10128000FD4F958F80938102FF91EF919F918F91F8
:101290002F910F900FBE0F901F9018958081F4CF63
:1012A0001F920F920FB60F9211242F933F934F93DB
:1012B0005F936F937F938F939F93AF93BF93CF93DE
:1012C000DF93EF93FF938091FB01C0912903D0E05E
:1012D00087FF24C010928500109284008091FB014A
:1012E0008F5F8093FB018091FB01082E000C990B0E
:1012F0008C179D0724F48091FB018C30C4F1809100
:10130000840090918500049680349C4908F47AC04A
:101310008091840090918500049676C08091FB01B5
:10132000082E000C990B8C179D07C4F6E091FB0169
:101330008E2FEE0F990BFC01EE0FFF1FE80FF91F28
:10134000EB5FFC4F808186FFC9CFE091FB018E2FC0
:10135000EE0F990BFC01EE0FFF1FE80FF91FEB5F7B
:10136000FC4F808160E08F730E949F01B7CF209176
:10137000840030918500E091FB018E2FEE0F990BD8
:10138000FC01EE0FFF1FE80FF91FEB5FFC4F81819F
:101390009281820F931F9093890080938800E0913F
:1013A000FB018E2FEE0F990BFC01EE0FFF1FE80FD4
:1013B000F91FEB5FFC4F808186FF11C0E091FB01BC
:1013C0008E2FEE0F990BFC01EE0FFF1FE80FF91F98
:1013D000EB5FFC4F808161E08F730E949F01FF9162
:1013E000EF91DF91CF91BF91AF919F918F917F91BD
:1013F0006F915F914F913F912F910F900FBE0F9082
:101400001F90189580E49CE9909389008093880050
:101410008FEF8093FB01E3CF1F920F920FB60F92D5
:1014200011242F933F934F935F936F937F938F93E9
:101430009F93AF93BF93EF93FF938091B900887F01
:10144000803609F44AC0F0F5883209F4A7C018F5CF
:10145000803109F49BC0B8F4882309F4F9C08830BE
:1014600009F494C0FF91EF91BF91AF919F918F913B
:101470007F916F915F914F913F912F910F900FBE90
:101480000F901F901895883109F488C0803251F769
:1014900080933E0214C0803409F49DC040F4803330
:1014A000B9F38833F9F680933E0285ECB0C08035FD
:1014B00009F485C0883509F496C0883499F60E94ED
:1014C0001607D0CF883909F48CC038F5883729F051
:1014D00050F4883611F0803729F683E0809340027B
:1014E0001092FA0157C0883809F47BC0803919F08E
:1014F000803809F0B7CF8091FA01803208F071C0CE
:10150000E091FA0181E08E0F8093FA018091BB0097
:10151000F0E0E652FE4F80833DC0803B39F0E0F4BE
:10152000803A09F479C0883A09F09CCF84E080932E
:1015300040021092D9011092D801E091FE01F09181
:10154000FF0109958091D80181110FC081E080933E
:10155000D8011092B80109C0803C09F4A6CF883C9C
:1015600009F4A3CF883B09F07DCFE091D90181E058
:101570008E0F8093D901F0E0E854FE4F8081809374
:10158000BB009091D9018091D80129C080913B0284
:101590008093BB0085EC8093BC0064CF90913D02AA
:1015A00080913C02981758F5E0913D0281E08E0F42
:1015B00080933D02F0E0E65EFD4F8081E9CFE0914F
:1015C0003D0281E08E0F80933D028091BB00F0E0F0
:1015D000E65EFD4F808390913D0280913C0298171A
:1015E000C8F285E8D8CFE0913D0281E08E0F80936C
:1015F0003D028091BB00F0E0E65EFD4F808380916C
:101600003F0281115CCF81E080933A0284EA8093AB
:10161000BC001092400226CF85EC8093BC00109253
:1016200040028091FA01803230F4E091FA01F0E05A
:10163000E652FE4F10826091FA0170E0E091FC01E9
:10164000F091FD018AED91E009951092FA010ACF1F
:1016500010923E0234CF10926B0210926A0288EE12
:1016600093E0A0E0B0E080936C0290936D02A093B1
:101670006E02B0936F0224E031E030936902209350
:10168000680225EC30E0309375022093740224EC5C
:1016900030E0309377022093760220EC30E03093F4
:1016A00079022093780221EC30E030937B02209382
:1016B0007A0222EC30E030937D0220937C0226EC0B
:1016C00030E030937F0220937E02109281021092CC
:1016D0008202109283021092840210922D031092C3
:1016E0002C0380932E0390932F03A0933003B09389
:1016F000310386E191E090932B0380932A0385E4E4
:1017000080933A038AE999E9A9E9BFE380933B030F
:1017100090933C03A0933D03B0933E03109240038B
:1017200010923F0383E2809339038AE293E090931F
:10173000420380934103809129038C3098F491E017
:10174000980F909329038093360390E0FC01EE0FED
:10175000FF1FE80FF91FEB5FFC4F88EB9BE09283C4
:10176000818308958FEF809336030895789484B52C
:10177000826084BD84B5816084BD85B5826085BD8D
:1017800085B5816085BD80916E00816080936E001B
:10179000109281008091810082608093810080910D
:1017A00081008160809381008091800081608093BE
:1017B00080008091B10084608093B1008091B0007E
:1017C00081608093B00080917A00846080937A0079
:1017D00080917A00826080937A0080917A008160A3
:1017E00080937A0080917A00806880937A001092CA
:1017F000C100E0917802F091790282E08083E0916B
:101800007402F09175021082E0917602F0917702F5
:101810008FEC808310928002E0917C02F0917D0237
:1018200086E08083E0917A02F0917B028081806182
:101830008083E0917A02F0917B02808188608083CE
:10184000E0917A02F0917B02808180688083E09150
:101850007A02F0917B0280818F7D808380913603B4
:101860008C3008F068C0E1E6F2E02491EDE4F2E0AB
:101870008491882399F090E0880F991FFC01E85922
:10188000FF4FA591B491FC01EB5CFD4F85919491C4
:101890008FB7F894EC91E22BEC938FBF80913603D5
:1018A000282F30E0F901EE0FFF1FE20FF31FEB5F6F
:1018B000FC4F9081907C9E60908310923703109231
:1018C00038032CE0622F0E946210829FB001112425
:1018D00030E020E0AB01420F531FFA01EE0FFF1F73
:1018E000E40FF51FEB5FFC4F908196FD16C02F5F54
:1018F0003F4F2C30310571F781110FC010928000DD
:1019000082E0809381001092850010928400B19A49
:1019100080916F00826080936F00E09136038E2F7C
:1019200090E0FC01EE0FFF1FE80FF91FEB5FFC4F8B
:101930008081806480831092470210924602109248
:101940000102109200020E9484038EE492E09093C0
:10195000FF018093FE018FE492E09093FD0180935C
:10196000FC0123E2209339038091410390914203CB
:10197000D1E0D093030220930202DC01ED91FC91AF
:101980000190F081E02D60E10995809141039091F3
:1019900042030E944904C82F6AE070E080E090E0B2
:1019A0000E941002C23009F491C048F4CC2391F097
:1019B00085EE91E0C13059F082E491E008C08EE7F5
:1019C00091E0C33021F082E691E0C430A9F70E9493
:1019D000550582C080E190E09093400380933F03DF
:1019E0000E94420260934303709344038093450333
:1019F00090934603809141039091420320913903D3
:101A0000D09303022093020210920102109200026E
:101A100062E470E00E94330580914103909142039B
:101A20000E944904C82F8091410390914203209164
:101A30003903D09303022093020210920102109204
:101A4000000265E670E00E943305809141039091A9
:101A500042030E944904C82B8091410390914203A4
:101A600020913903D09303022093020210920102C5
:101A70001092000260913F03709140030E94330571
:101A800080914103909142030E944904C82B6AE06F
:101A900070E080E090E00E941002C23009F4A3C020
:101AA00050F4CC23B1F085E191E0C13009F48FCF3F
:101AB00082E790E08CCF8EEA90E0C33009F487CFC4
:101AC00082E990E0C43009F482CFF2CF80EB91E05C
:101AD0007ECF85E480933A0388EE93E00E9469010B
:101AE000C0E0D0E00E944E0780913F0390914003F8
:101AF000892B09F07BC082E192E00E94550560E0ED
:101B000070E080E090EC60930D0270930E02809381
:101B10000F02909310020E94420260930902709398
:101B20000A0280930B0290930C0268E270E080E05E
:101B300090E00E9410020E944E070E9442026B0138
:101B40007C01C0920902D0920A02E0920B02F0924C
:101B50000C0280910802882319F18091040290916F
:101B60000502A0910602B0910702A7019601281B69
:101B7000390B4A0B5B0BDA01C90180369A4EA1057D
:101B8000B10570F00E943A05C0920402D09205029D
:101B9000E0920602F092070288E791E00E94B90500
:101BA0008091090290910A02A0910B02B0910C025F
:101BB000813C9742A940B105E0F00FB6F894A89592
:101BC00080916000886180936000109260000FBE79
:101BD00088E198E00FB6F894A895809360000FBE56
:101BE00090936000FFCF80EE90E0F1CE0E94C70599
:101BF0008ACF209709F476CF0E94BA02882309F48D
:101C000071CF0E9400006ECFA1E21A2EAA1BBB1B4F
:101C1000FD010DC0AA1FBB1FEE1FFF1FA217B307B8
:101C2000E407F50720F0A21BB30BE40BF50B661FCE
:101C3000771F881F991F1A9469F760957095809592
:101C400090959B01AC01BD01CF0108955058BB2771
:101C5000AA270E943E0E0C94B10F0E94A30F38F0E9
:101C60000E94AA0F20F039F49F3F19F426F40C9437
:101C7000A00F0EF4E095E7FB0C949A0FE92F0E9459
:101C8000C20F58F3BA17620773078407950720F04D
:101C900079F4A6F50C94E40F0EF4E0950B2EBA2F10
:101CA000A02D0B01B90190010C01CA01A001112462
:101CB000FF27591B99F0593F50F4503E68F11A160E
:101CC000F040A22F232F342F4427585FF3CF46959F
:101CD00037952795A795F0405395C9F77EF41F16C1
:101CE000BA0B620B730B840BBAF09150A1F0FF0F8B
:101CF000BB1F661F771F881FC2F70EC0BA0F621F77
:101D0000731F841F48F4879577956795B795F79566
:101D10009E3F08F0B0CF9395880F08F09927EE0FFB
:101D20009795879508950E94760F08F481E00895AD
:101D30000E94AC0E0C94B10F0E94AA0F58F00E94A2
:101D4000A30F40F029F45F3F29F00C949A0F511132
:101D50000C94E50F0C94A00F0E94C20F68F3992316
:101D6000B1F3552391F3951B550BBB27AA27621797
:101D70007307840738F09F5F5F4F220F331F441FA4
:101D8000AA1FA9F335D00E2E3AF0E0E832D09150D8
:101D90005040E695001CCAF72BD0FE2F29D0660FC5
:101DA000771F881FBB1F261737074807AB07B0E808
:101DB00009F0BB0B802DBF01FF2793585F4F3AF00E
:101DC0009E3F510578F00C949A0F0C94E50F5F3FFD
:101DD000E4F3983ED4F3869577956795B795F79594
:101DE0009F5FC9F7880F911D9695879597F908957C
:101DF000E1E0660F771F881FBB1F62177307840718
:101E0000BA0720F0621B730B840BBA0BEE1F88F726
:101E1000E09508950E94CA0F88F09F5798F0B92F57
:101E20009927B751B0F0E1F0660F771F881F991F0F
:101E30001AF0BA95C9F714C0B13091F00E94E40FBE
:101E4000B1E008950C94E40F672F782F8827B85FCE
:101E500039F0B93FCCF3869577956795B395D9F767
:101E60003EF490958095709561957F4F8F4F9F4F71
:101E70000895E89409C097FB3EF49095809570957D
:101E800061957F4F8F4F9F4F9923A9F0F92F96E9C6
:101E9000BB279395F695879577956795B795F1113B
:101EA000F8CFFAF4BB0F11F460FF1BC06F5F7F4FD8
:101EB0008F4F9F4F16C0882311F096E911C07723EA
:101EC00021F09EE8872F762F05C0662371F096E8F3
:101ED000862F70E060E02AF09A95660F771F881FC2
:101EE000DAF7880F9695879597F90895990F000866
:101EF000550FAA0BE0E8FEEF16161706E807F907DC
:101F0000C0F012161306E407F50798F0621B730B76
:101F1000840B950B39F40A2661F0232B242B252BF7
:101F200021F408950A2609F4A140A6958FEF811D9A
:101F3000811D089597F99F6780E870E060E008953B
:101F40009FEF80EC089500240A94161617061806D1
:101F50000906089500240A941216130614060506AD
:101F60000895092E0394000C11F4882352F0BB0F3E
:101F700040F4BF2B11F460FF04C06F5F7F4F8F4FA1
:101F80009F4F089557FD9058440F551F59F05F3FDC
:101F900071F04795880F97FB991F61F09F3F79F08B
:101FA00087950895121613061406551FF2CF46950D
:101FB000F1DF08C0161617061806991FF1CF86958F
:101FC0007105610508940895E894BB276627772773
:101FD000CB0197F908950E94760F08F48FEF0895CA
:101FE0000E9403100C94B10F0E94A30F38F00E94BE
:101FF000AA0F20F0952311F00C949A0F0C94A00FC7
:1020000011240C94E50F0E94C20F70F3959FC1F349
:10201000950F50E0551F629FF001729FBB27F00D96
:10202000B11D639FAA27F00DB11DAA1F649F6627EB
:10203000B00DA11D661F829F2227B00DA11D621F3A
:10204000739FB00DA11D621F839FA00D611D221FF4
:10205000749F3327A00D611D231F849F600D211DD8
:10206000822F762F6A2F11249F5750409AF0F1F05B
:1020700088234AF0EE0FFF1FBB1F661F771F881FC4
:1020800091505040A9F79E3F510580F00C949A0F53
:102090000C94E50F5F3FE4F3983ED4F38695779573
:1020A0006795B795F795E7959F5FC1F7FE2B880F6A
:1020B000911D9695879597F908950E94760F880B44
:1020C000990B0895991B79E004C0991F961708F0A1
:1020D000961B881F7A95C9F780950895EE0FFF1F0C
:1020E0000590F491E02D0994FB01DC018D910190A4
:0E20F00080190110D9F3990B0895F894FFCFD1
:1020FE0000000000F00250027D023D03AE028C0291
:10210E00A002000000001A04ED033005C303E6032D
:10211E00D303C4030D0A006F6E006F6666007275FE
:10212E006E006F6B2070756C73650066697265006A
:10213E0074657374006F6B2073746F7000737461C9
:10214E00747573006F6B206C75783D006E616E0058
:10215E00696E66006F766600206175746F3D00755E
:10216E006E6B6E6F776E20006F6B206175746F20D3
:06217E0070756C73650032
:00000001FF
